{
	"contracts/Counter.sol": {
		"Counter": {
			"abi": [
				{
					"inputs": [],
					"stateMutability": "nonpayable",
					"type": "constructor"
				},
				{
					"anonymous": false,
					"inputs": [
						{
							"indexed": true,
							"internalType": "address",
							"name": "sender",
							"type": "address"
						},
						{
							"indexed": false,
							"internalType": "uint256",
							"name": "_count",
							"type": "uint256"
						},
						{
							"indexed": false,
							"internalType": "string",
							"name": "changed",
							"type": "string"
						}
					],
					"name": "countChanged",
					"type": "event"
				},
				{
					"inputs": [],
					"name": "count",
					"outputs": [
						{
							"internalType": "uint256",
							"name": "",
							"type": "uint256"
						}
					],
					"stateMutability": "view",
					"type": "function"
				},
				{
					"inputs": [],
					"name": "decrement",
					"outputs": [],
					"stateMutability": "nonpayable",
					"type": "function"
				},
				{
					"inputs": [],
					"name": "getCount",
					"outputs": [
						{
							"internalType": "uint256",
							"name": "",
							"type": "uint256"
						}
					],
					"stateMutability": "view",
					"type": "function"
				},
				{
					"inputs": [],
					"name": "increment",
					"outputs": [],
					"stateMutability": "nonpayable",
					"type": "function"
				},
				{
					"inputs": [],
					"name": "owner",
					"outputs": [
						{
							"internalType": "address",
							"name": "",
							"type": "address"
						}
					],
					"stateMutability": "view",
					"type": "function"
				},
				{
					"inputs": [
						{
							"internalType": "uint256",
							"name": "_count",
							"type": "uint256"
						}
					],
					"name": "setCount",
					"outputs": [],
					"stateMutability": "nonpayable",
					"type": "function"
				}
			],
			"devdoc": {
				"kind": "dev",
				"methods": {},
				"version": 1
			},
			"evm": {
				"assembly": "    /* \"contracts/Counter.sol\":57:884  contract Counter{... */\n  mstore(0x40, 0x80)\n    /* \"contracts/Counter.sol\":129:186  constructor ()  {... */\n  callvalue\n  dup1\n  iszero\n  tag_1\n  jumpi\n  0x00\n  dup1\n  revert\ntag_1:\n  pop\n    /* \"contracts/Counter.sol\":164:174  msg.sender */\n  caller\n    /* \"contracts/Counter.sol\":155:160  owner */\n  0x01\n  0x00\n    /* \"contracts/Counter.sol\":155:174  owner  = msg.sender */\n  0x0100\n  exp\n  dup2\n  sload\n  dup2\n  0xffffffffffffffffffffffffffffffffffffffff\n  mul\n  not\n  and\n  swap1\n  dup4\n  0xffffffffffffffffffffffffffffffffffffffff\n  and\n  mul\n  or\n  swap1\n  sstore\n  pop\n    /* \"contracts/Counter.sol\":57:884  contract Counter{... */\n  dataSize(sub_0)\n  dup1\n  dataOffset(sub_0)\n  0x00\n  codecopy\n  0x00\n  return\nstop\n\nsub_0: assembly {\n        /* \"contracts/Counter.sol\":57:884  contract Counter{... */\n      mstore(0x40, 0x80)\n      callvalue\n      dup1\n      iszero\n      tag_1\n      jumpi\n      0x00\n      dup1\n      revert\n    tag_1:\n      pop\n      jumpi(tag_2, lt(calldatasize, 0x04))\n      shr(0xe0, calldataload(0x00))\n      dup1\n      0x06661abd\n      eq\n      tag_3\n      jumpi\n      dup1\n      0x2baeceb7\n      eq\n      tag_4\n      jumpi\n      dup1\n      0x8da5cb5b\n      eq\n      tag_5\n      jumpi\n      dup1\n      0xa87d942c\n      eq\n      tag_6\n      jumpi\n      dup1\n      0xd09de08a\n      eq\n      tag_7\n      jumpi\n      dup1\n      0xd14e62b8\n      eq\n      tag_8\n      jumpi\n    tag_2:\n      0x00\n      dup1\n      revert\n        /* \"contracts/Counter.sol\":79:96  uint public count */\n    tag_3:\n      tag_9\n      tag_10\n      jump\t// in\n    tag_9:\n      mload(0x40)\n      tag_11\n      swap2\n      swap1\n      tag_12\n      jump\t// in\n    tag_11:\n      mload(0x40)\n      dup1\n      swap2\n      sub\n      swap1\n      return\n        /* \"contracts/Counter.sol\":603:668  function decrement() external onlyOwner {... */\n    tag_4:\n      tag_13\n      tag_14\n      jump\t// in\n    tag_13:\n      stop\n        /* \"contracts/Counter.sol\":102:122  address public owner */\n    tag_5:\n      tag_15\n      tag_16\n      jump\t// in\n    tag_15:\n      mload(0x40)\n      tag_17\n      swap2\n      swap1\n      tag_18\n      jump\t// in\n    tag_17:\n      mload(0x40)\n      dup1\n      swap2\n      sub\n      swap1\n      return\n        /* \"contracts/Counter.sol\":673:804  function getCount() external onlyOwner view returns (uint) {... */\n    tag_6:\n      tag_19\n      tag_20\n      jump\t// in\n    tag_19:\n      mload(0x40)\n      tag_21\n      swap2\n      swap1\n      tag_12\n      jump\t// in\n    tag_21:\n      mload(0x40)\n      dup1\n      swap2\n      sub\n      swap1\n      return\n        /* \"contracts/Counter.sol\":351:597  function increment() external onlyOwner {  // function name is \"increment\"... */\n    tag_7:\n      tag_22\n      tag_23\n      jump\t// in\n    tag_22:\n      stop\n        /* \"contracts/Counter.sol\":810:882  function setCount (uint _count) external {... */\n    tag_8:\n      tag_24\n      0x04\n      dup1\n      calldatasize\n      sub\n      dup2\n      add\n      swap1\n      tag_25\n      swap2\n      swap1\n      tag_26\n      jump\t// in\n    tag_25:\n      tag_27\n      jump\t// in\n    tag_24:\n      stop\n        /* \"contracts/Counter.sol\":79:96  uint public count */\n    tag_10:\n      sload(0x00)\n      dup2\n      jump\t// out\n        /* \"contracts/Counter.sol\":603:668  function decrement() external onlyOwner {... */\n    tag_14:\n        /* \"contracts/Counter.sol\":320:325  owner */\n      0x01\n      0x00\n      swap1\n      sload\n      swap1\n      0x0100\n      exp\n      swap1\n      div\n      0xffffffffffffffffffffffffffffffffffffffff\n      and\n        /* \"contracts/Counter.sol\":306:325  msg.sender == owner */\n      0xffffffffffffffffffffffffffffffffffffffff\n      and\n        /* \"contracts/Counter.sol\":306:316  msg.sender */\n      caller\n        /* \"contracts/Counter.sol\":306:325  msg.sender == owner */\n      0xffffffffffffffffffffffffffffffffffffffff\n      and\n      eq\n        /* \"contracts/Counter.sol\":298:326  require(msg.sender == owner) */\n      tag_29\n      jumpi\n      0x00\n      dup1\n      revert\n    tag_29:\n        /* \"contracts/Counter.sol\":653:658  count */\n      0x00\n      dup1\n        /* \"contracts/Counter.sol\":653:661  count -- */\n      dup2\n      sload\n      dup1\n      swap3\n      swap2\n      swap1\n      tag_31\n      swap1\n      tag_32\n      jump\t// in\n    tag_31:\n      swap2\n      swap1\n      pop\n      sstore\n      pop\n        /* \"contracts/Counter.sol\":603:668  function decrement() external onlyOwner {... */\n      jump\t// out\n        /* \"contracts/Counter.sol\":102:122  address public owner */\n    tag_16:\n      0x01\n      0x00\n      swap1\n      sload\n      swap1\n      0x0100\n      exp\n      swap1\n      div\n      0xffffffffffffffffffffffffffffffffffffffff\n      and\n      dup2\n      jump\t// out\n        /* \"contracts/Counter.sol\":673:804  function getCount() external onlyOwner view returns (uint) {... */\n    tag_20:\n        /* \"contracts/Counter.sol\":726:730  uint */\n      0x00\n        /* \"contracts/Counter.sol\":320:325  owner */\n      0x01\n      0x00\n      swap1\n      sload\n      swap1\n      0x0100\n      exp\n      swap1\n      div\n      0xffffffffffffffffffffffffffffffffffffffff\n      and\n        /* \"contracts/Counter.sol\":306:325  msg.sender == owner */\n      0xffffffffffffffffffffffffffffffffffffffff\n      and\n        /* \"contracts/Counter.sol\":306:316  msg.sender */\n      caller\n        /* \"contracts/Counter.sol\":306:325  msg.sender == owner */\n      0xffffffffffffffffffffffffffffffffffffffff\n      and\n      eq\n        /* \"contracts/Counter.sol\":298:326  require(msg.sender == owner) */\n      tag_34\n      jumpi\n      0x00\n      dup1\n      revert\n    tag_34:\n        /* \"contracts/Counter.sol\":748:753  count */\n      sload(0x00)\n        /* \"contracts/Counter.sol\":741:753  return count */\n      swap1\n      pop\n        /* \"contracts/Counter.sol\":673:804  function getCount() external onlyOwner view returns (uint) {... */\n      swap1\n      jump\t// out\n        /* \"contracts/Counter.sol\":351:597  function increment() external onlyOwner {  // function name is \"increment\"... */\n    tag_23:\n        /* \"contracts/Counter.sol\":320:325  owner */\n      0x01\n      0x00\n      swap1\n      sload\n      swap1\n      0x0100\n      exp\n      swap1\n      div\n      0xffffffffffffffffffffffffffffffffffffffff\n      and\n        /* \"contracts/Counter.sol\":306:325  msg.sender == owner */\n      0xffffffffffffffffffffffffffffffffffffffff\n      and\n        /* \"contracts/Counter.sol\":306:316  msg.sender */\n      caller\n        /* \"contracts/Counter.sol\":306:325  msg.sender == owner */\n      0xffffffffffffffffffffffffffffffffffffffff\n      and\n      eq\n        /* \"contracts/Counter.sol\":298:326  require(msg.sender == owner) */\n      tag_37\n      jumpi\n      0x00\n      dup1\n      revert\n    tag_37:\n        /* \"contracts/Counter.sol\":434:439  count */\n      0x00\n      dup1\n        /* \"contracts/Counter.sol\":434:441  count++ */\n      dup2\n      sload\n      dup1\n      swap3\n      swap2\n      swap1\n      tag_39\n      swap1\n      tag_40\n      jump\t// in\n    tag_39:\n      swap2\n      swap1\n      pop\n      sstore\n      pop\n        /* \"contracts/Counter.sol\":470:480  msg.sender */\n      caller\n        /* \"contracts/Counter.sol\":457:501  countChanged(msg.sender,count,\"incremented\") */\n      0xffffffffffffffffffffffffffffffffffffffff\n      and\n      0x3ffa285c512090a1ef26a9f9aed6a5b1efeb83a0181aa570e2092058e17cf82b\n        /* \"contracts/Counter.sol\":481:486  count */\n      sload(0x00)\n        /* \"contracts/Counter.sol\":457:501  countChanged(msg.sender,count,\"incremented\") */\n      mload(0x40)\n      tag_41\n      swap2\n      swap1\n      tag_42\n      jump\t// in\n    tag_41:\n      mload(0x40)\n      dup1\n      swap2\n      sub\n      swap1\n      log2\n        /* \"contracts/Counter.sol\":351:597  function increment() external onlyOwner {  // function name is \"increment\"... */\n      jump\t// out\n        /* \"contracts/Counter.sol\":810:882  function setCount (uint _count) external {... */\n    tag_27:\n        /* \"contracts/Counter.sol\":869:875  _count */\n      dup1\n        /* \"contracts/Counter.sol\":861:866  count */\n      0x00\n        /* \"contracts/Counter.sol\":861:875  count = _count */\n      dup2\n      swap1\n      sstore\n      pop\n        /* \"contracts/Counter.sol\":810:882  function setCount (uint _count) external {... */\n      pop\n      jump\t// out\n        /* \"#utility.yul\":7:84   */\n    tag_44:\n        /* \"#utility.yul\":44:51   */\n      0x00\n        /* \"#utility.yul\":73:78   */\n      dup2\n        /* \"#utility.yul\":62:78   */\n      swap1\n      pop\n        /* \"#utility.yul\":7:84   */\n      swap2\n      swap1\n      pop\n      jump\t// out\n        /* \"#utility.yul\":90:208   */\n    tag_45:\n        /* \"#utility.yul\":177:201   */\n      tag_61\n        /* \"#utility.yul\":195:200   */\n      dup2\n        /* \"#utility.yul\":177:201   */\n      tag_44\n      jump\t// in\n    tag_61:\n        /* \"#utility.yul\":172:175   */\n      dup3\n        /* \"#utility.yul\":165:202   */\n      mstore\n        /* \"#utility.yul\":90:208   */\n      pop\n      pop\n      jump\t// out\n        /* \"#utility.yul\":214:436   */\n    tag_12:\n        /* \"#utility.yul\":307:311   */\n      0x00\n        /* \"#utility.yul\":345:347   */\n      0x20\n        /* \"#utility.yul\":334:343   */\n      dup3\n        /* \"#utility.yul\":330:348   */\n      add\n        /* \"#utility.yul\":322:348   */\n      swap1\n      pop\n        /* \"#utility.yul\":358:429   */\n      tag_63\n        /* \"#utility.yul\":426:427   */\n      0x00\n        /* \"#utility.yul\":415:424   */\n      dup4\n        /* \"#utility.yul\":411:428   */\n      add\n        /* \"#utility.yul\":402:408   */\n      dup5\n        /* \"#utility.yul\":358:429   */\n      tag_45\n      jump\t// in\n    tag_63:\n        /* \"#utility.yul\":214:436   */\n      swap3\n      swap2\n      pop\n      pop\n      jump\t// out\n        /* \"#utility.yul\":442:568   */\n    tag_46:\n        /* \"#utility.yul\":479:486   */\n      0x00\n        /* \"#utility.yul\":519:561   */\n      0xffffffffffffffffffffffffffffffffffffffff\n        /* \"#utility.yul\":512:517   */\n      dup3\n        /* \"#utility.yul\":508:562   */\n      and\n        /* \"#utility.yul\":497:562   */\n      swap1\n      pop\n        /* \"#utility.yul\":442:568   */\n      swap2\n      swap1\n      pop\n      jump\t// out\n        /* \"#utility.yul\":574:670   */\n    tag_47:\n        /* \"#utility.yul\":611:618   */\n      0x00\n        /* \"#utility.yul\":640:664   */\n      tag_66\n        /* \"#utility.yul\":658:663   */\n      dup3\n        /* \"#utility.yul\":640:664   */\n      tag_46\n      jump\t// in\n    tag_66:\n        /* \"#utility.yul\":629:664   */\n      swap1\n      pop\n        /* \"#utility.yul\":574:670   */\n      swap2\n      swap1\n      pop\n      jump\t// out\n        /* \"#utility.yul\":676:794   */\n    tag_48:\n        /* \"#utility.yul\":763:787   */\n      tag_68\n        /* \"#utility.yul\":781:786   */\n      dup2\n        /* \"#utility.yul\":763:787   */\n      tag_47\n      jump\t// in\n    tag_68:\n        /* \"#utility.yul\":758:761   */\n      dup3\n        /* \"#utility.yul\":751:788   */\n      mstore\n        /* \"#utility.yul\":676:794   */\n      pop\n      pop\n      jump\t// out\n        /* \"#utility.yul\":800:1022   */\n    tag_18:\n        /* \"#utility.yul\":893:897   */\n      0x00\n        /* \"#utility.yul\":931:933   */\n      0x20\n        /* \"#utility.yul\":920:929   */\n      dup3\n        /* \"#utility.yul\":916:934   */\n      add\n        /* \"#utility.yul\":908:934   */\n      swap1\n      pop\n        /* \"#utility.yul\":944:1015   */\n      tag_70\n        /* \"#utility.yul\":1012:1013   */\n      0x00\n        /* \"#utility.yul\":1001:1010   */\n      dup4\n        /* \"#utility.yul\":997:1014   */\n      add\n        /* \"#utility.yul\":988:994   */\n      dup5\n        /* \"#utility.yul\":944:1015   */\n      tag_48\n      jump\t// in\n    tag_70:\n        /* \"#utility.yul\":800:1022   */\n      swap3\n      swap2\n      pop\n      pop\n      jump\t// out\n        /* \"#utility.yul\":1109:1226   */\n    tag_50:\n        /* \"#utility.yul\":1218:1219   */\n      0x00\n        /* \"#utility.yul\":1215:1216   */\n      dup1\n        /* \"#utility.yul\":1208:1220   */\n      revert\n        /* \"#utility.yul\":1355:1477   */\n    tag_52:\n        /* \"#utility.yul\":1428:1452   */\n      tag_75\n        /* \"#utility.yul\":1446:1451   */\n      dup2\n        /* \"#utility.yul\":1428:1452   */\n      tag_44\n      jump\t// in\n    tag_75:\n        /* \"#utility.yul\":1421:1426   */\n      dup2\n        /* \"#utility.yul\":1418:1453   */\n      eq\n        /* \"#utility.yul\":1408:1471   */\n      tag_76\n      jumpi\n        /* \"#utility.yul\":1467:1468   */\n      0x00\n        /* \"#utility.yul\":1464:1465   */\n      dup1\n        /* \"#utility.yul\":1457:1469   */\n      revert\n        /* \"#utility.yul\":1408:1471   */\n    tag_76:\n        /* \"#utility.yul\":1355:1477   */\n      pop\n      jump\t// out\n        /* \"#utility.yul\":1483:1622   */\n    tag_53:\n        /* \"#utility.yul\":1529:1534   */\n      0x00\n        /* \"#utility.yul\":1567:1573   */\n      dup2\n        /* \"#utility.yul\":1554:1574   */\n      calldataload\n        /* \"#utility.yul\":1545:1574   */\n      swap1\n      pop\n        /* \"#utility.yul\":1583:1616   */\n      tag_78\n        /* \"#utility.yul\":1610:1615   */\n      dup2\n        /* \"#utility.yul\":1583:1616   */\n      tag_52\n      jump\t// in\n    tag_78:\n        /* \"#utility.yul\":1483:1622   */\n      swap3\n      swap2\n      pop\n      pop\n      jump\t// out\n        /* \"#utility.yul\":1628:1957   */\n    tag_26:\n        /* \"#utility.yul\":1687:1693   */\n      0x00\n        /* \"#utility.yul\":1736:1738   */\n      0x20\n        /* \"#utility.yul\":1724:1733   */\n      dup3\n        /* \"#utility.yul\":1715:1722   */\n      dup5\n        /* \"#utility.yul\":1711:1734   */\n      sub\n        /* \"#utility.yul\":1707:1739   */\n      slt\n        /* \"#utility.yul\":1704:1823   */\n      iszero\n      tag_80\n      jumpi\n        /* \"#utility.yul\":1742:1821   */\n      tag_81\n      tag_50\n      jump\t// in\n    tag_81:\n        /* \"#utility.yul\":1704:1823   */\n    tag_80:\n        /* \"#utility.yul\":1862:1863   */\n      0x00\n        /* \"#utility.yul\":1887:1940   */\n      tag_82\n        /* \"#utility.yul\":1932:1939   */\n      dup5\n        /* \"#utility.yul\":1923:1929   */\n      dup3\n        /* \"#utility.yul\":1912:1921   */\n      dup6\n        /* \"#utility.yul\":1908:1930   */\n      add\n        /* \"#utility.yul\":1887:1940   */\n      tag_53\n      jump\t// in\n    tag_82:\n        /* \"#utility.yul\":1877:1940   */\n      swap2\n      pop\n        /* \"#utility.yul\":1833:1950   */\n      pop\n        /* \"#utility.yul\":1628:1957   */\n      swap3\n      swap2\n      pop\n      pop\n      jump\t// out\n        /* \"#utility.yul\":1963:2143   */\n    tag_54:\n        /* \"#utility.yul\":2011:2088   */\n      0x4e487b7100000000000000000000000000000000000000000000000000000000\n        /* \"#utility.yul\":2008:2009   */\n      0x00\n        /* \"#utility.yul\":2001:2089   */\n      mstore\n        /* \"#utility.yul\":2108:2112   */\n      0x11\n        /* \"#utility.yul\":2105:2106   */\n      0x04\n        /* \"#utility.yul\":2098:2113   */\n      mstore\n        /* \"#utility.yul\":2132:2136   */\n      0x24\n        /* \"#utility.yul\":2129:2130   */\n      0x00\n        /* \"#utility.yul\":2122:2137   */\n      revert\n        /* \"#utility.yul\":2149:2320   */\n    tag_32:\n        /* \"#utility.yul\":2188:2191   */\n      0x00\n        /* \"#utility.yul\":2211:2235   */\n      tag_85\n        /* \"#utility.yul\":2229:2234   */\n      dup3\n        /* \"#utility.yul\":2211:2235   */\n      tag_44\n      jump\t// in\n    tag_85:\n        /* \"#utility.yul\":2202:2235   */\n      swap2\n      pop\n        /* \"#utility.yul\":2257:2261   */\n      0x00\n        /* \"#utility.yul\":2250:2255   */\n      dup3\n        /* \"#utility.yul\":2247:2262   */\n      sub\n        /* \"#utility.yul\":2244:2285   */\n      tag_86\n      jumpi\n        /* \"#utility.yul\":2265:2283   */\n      tag_87\n      tag_54\n      jump\t// in\n    tag_87:\n        /* \"#utility.yul\":2244:2285   */\n    tag_86:\n        /* \"#utility.yul\":2312:2313   */\n      0x01\n        /* \"#utility.yul\":2305:2310   */\n      dup3\n        /* \"#utility.yul\":2301:2314   */\n      sub\n        /* \"#utility.yul\":2294:2314   */\n      swap1\n      pop\n        /* \"#utility.yul\":2149:2320   */\n      swap2\n      swap1\n      pop\n      jump\t// out\n        /* \"#utility.yul\":2326:2559   */\n    tag_40:\n        /* \"#utility.yul\":2365:2368   */\n      0x00\n        /* \"#utility.yul\":2388:2412   */\n      tag_89\n        /* \"#utility.yul\":2406:2411   */\n      dup3\n        /* \"#utility.yul\":2388:2412   */\n      tag_44\n      jump\t// in\n    tag_89:\n        /* \"#utility.yul\":2379:2412   */\n      swap2\n      pop\n        /* \"#utility.yul\":2434:2500   */\n      0xffffffffffffffffffffffffffffffffffffffffffffffffffffffffffffffff\n        /* \"#utility.yul\":2427:2432   */\n      dup3\n        /* \"#utility.yul\":2424:2501   */\n      sub\n        /* \"#utility.yul\":2421:2524   */\n      tag_90\n      jumpi\n        /* \"#utility.yul\":2504:2522   */\n      tag_91\n      tag_54\n      jump\t// in\n    tag_91:\n        /* \"#utility.yul\":2421:2524   */\n    tag_90:\n        /* \"#utility.yul\":2551:2552   */\n      0x01\n        /* \"#utility.yul\":2544:2549   */\n      dup3\n        /* \"#utility.yul\":2540:2553   */\n      add\n        /* \"#utility.yul\":2533:2553   */\n      swap1\n      pop\n        /* \"#utility.yul\":2326:2559   */\n      swap2\n      swap1\n      pop\n      jump\t// out\n        /* \"#utility.yul\":2565:2734   */\n    tag_55:\n        /* \"#utility.yul\":2649:2660   */\n      0x00\n        /* \"#utility.yul\":2683:2689   */\n      dup3\n        /* \"#utility.yul\":2678:2681   */\n      dup3\n        /* \"#utility.yul\":2671:2690   */\n      mstore\n        /* \"#utility.yul\":2723:2727   */\n      0x20\n        /* \"#utility.yul\":2718:2721   */\n      dup3\n        /* \"#utility.yul\":2714:2728   */\n      add\n        /* \"#utility.yul\":2699:2728   */\n      swap1\n      pop\n        /* \"#utility.yul\":2565:2734   */\n      swap3\n      swap2\n      pop\n      pop\n      jump\t// out\n        /* \"#utility.yul\":2740:2901   */\n    tag_56:\n        /* \"#utility.yul\":2880:2893   */\n      0x696e6372656d656e746564000000000000000000000000000000000000000000\n        /* \"#utility.yul\":2876:2877   */\n      0x00\n        /* \"#utility.yul\":2868:2874   */\n      dup3\n        /* \"#utility.yul\":2864:2878   */\n      add\n        /* \"#utility.yul\":2857:2894   */\n      mstore\n        /* \"#utility.yul\":2740:2901   */\n      pop\n      jump\t// out\n        /* \"#utility.yul\":2907:3273   */\n    tag_57:\n        /* \"#utility.yul\":3049:3052   */\n      0x00\n        /* \"#utility.yul\":3070:3137   */\n      tag_95\n        /* \"#utility.yul\":3134:3136   */\n      0x0b\n        /* \"#utility.yul\":3129:3132   */\n      dup4\n        /* \"#utility.yul\":3070:3137   */\n      tag_55\n      jump\t// in\n    tag_95:\n        /* \"#utility.yul\":3063:3137   */\n      swap2\n      pop\n        /* \"#utility.yul\":3146:3239   */\n      tag_96\n        /* \"#utility.yul\":3235:3238   */\n      dup3\n        /* \"#utility.yul\":3146:3239   */\n      tag_56\n      jump\t// in\n    tag_96:\n        /* \"#utility.yul\":3264:3266   */\n      0x20\n        /* \"#utility.yul\":3259:3262   */\n      dup3\n        /* \"#utility.yul\":3255:3267   */\n      add\n        /* \"#utility.yul\":3248:3267   */\n      swap1\n      pop\n        /* \"#utility.yul\":2907:3273   */\n      swap2\n      swap1\n      pop\n      jump\t// out\n        /* \"#utility.yul\":3279:3808   */\n    tag_42:\n        /* \"#utility.yul\":3473:3477   */\n      0x00\n        /* \"#utility.yul\":3511:3513   */\n      0x40\n        /* \"#utility.yul\":3500:3509   */\n      dup3\n        /* \"#utility.yul\":3496:3514   */\n      add\n        /* \"#utility.yul\":3488:3514   */\n      swap1\n      pop\n        /* \"#utility.yul\":3524:3595   */\n      tag_98\n        /* \"#utility.yul\":3592:3593   */\n      0x00\n        /* \"#utility.yul\":3581:3590   */\n      dup4\n        /* \"#utility.yul\":3577:3594   */\n      add\n        /* \"#utility.yul\":3568:3574   */\n      dup5\n        /* \"#utility.yul\":3524:3595   */\n      tag_45\n      jump\t// in\n    tag_98:\n        /* \"#utility.yul\":3642:3651   */\n      dup2\n        /* \"#utility.yul\":3636:3640   */\n      dup2\n        /* \"#utility.yul\":3632:3652   */\n      sub\n        /* \"#utility.yul\":3627:3629   */\n      0x20\n        /* \"#utility.yul\":3616:3625   */\n      dup4\n        /* \"#utility.yul\":3612:3630   */\n      add\n        /* \"#utility.yul\":3605:3653   */\n      mstore\n        /* \"#utility.yul\":3670:3801   */\n      tag_99\n        /* \"#utility.yul\":3796:3800   */\n      dup2\n        /* \"#utility.yul\":3670:3801   */\n      tag_57\n      jump\t// in\n    tag_99:\n        /* \"#utility.yul\":3662:3801   */\n      swap1\n      pop\n        /* \"#utility.yul\":3279:3808   */\n      swap3\n      swap2\n      pop\n      pop\n      jump\t// out\n\n    auxdata: 0xa2646970667358221220b2a02f03fd9d51c48658157c53ef0f909201450460d744b01098872fd68f3e8f64736f6c634300081a0033\n}\n",
				"bytecode": {
					"linkReferences": {},
					"object": "6080604052348015600e575f80fd5b503360015f6101000a81548173ffffffffffffffffffffffffffffffffffffffff021916908373ffffffffffffffffffffffffffffffffffffffff1602179055506104e98061005c5f395ff3fe608060405234801561000f575f80fd5b5060043610610060575f3560e01c806306661abd146100645780632baeceb7146100825780638da5cb5b1461008c578063a87d942c146100aa578063d09de08a146100c8578063d14e62b8146100d2575b5f80fd5b61006c6100ee565b60405161007991906102c8565b60405180910390f35b61008a6100f3565b005b610094610163565b6040516100a19190610320565b60405180910390f35b6100b2610188565b6040516100bf91906102c8565b60405180910390f35b6100d06101e8565b005b6100ec60048036038101906100e79190610367565b6102a7565b005b5f5481565b60015f9054906101000a900473ffffffffffffffffffffffffffffffffffffffff1673ffffffffffffffffffffffffffffffffffffffff163373ffffffffffffffffffffffffffffffffffffffff161461014b575f80fd5b5f8081548092919061015c906103bf565b9190505550565b60015f9054906101000a900473ffffffffffffffffffffffffffffffffffffffff1681565b5f60015f9054906101000a900473ffffffffffffffffffffffffffffffffffffffff1673ffffffffffffffffffffffffffffffffffffffff163373ffffffffffffffffffffffffffffffffffffffff16146101e1575f80fd5b5f54905090565b60015f9054906101000a900473ffffffffffffffffffffffffffffffffffffffff1673ffffffffffffffffffffffffffffffffffffffff163373ffffffffffffffffffffffffffffffffffffffff1614610240575f80fd5b5f80815480929190610251906103e6565b91905055503373ffffffffffffffffffffffffffffffffffffffff167f3ffa285c512090a1ef26a9f9aed6a5b1efeb83a0181aa570e2092058e17cf82b5f5460405161029d9190610487565b60405180910390a2565b805f8190555050565b5f819050919050565b6102c2816102b0565b82525050565b5f6020820190506102db5f8301846102b9565b92915050565b5f73ffffffffffffffffffffffffffffffffffffffff82169050919050565b5f61030a826102e1565b9050919050565b61031a81610300565b82525050565b5f6020820190506103335f830184610311565b92915050565b5f80fd5b610346816102b0565b8114610350575f80fd5b50565b5f813590506103618161033d565b92915050565b5f6020828403121561037c5761037b610339565b5b5f61038984828501610353565b91505092915050565b7f4e487b71000000000000000000000000000000000000000000000000000000005f52601160045260245ffd5b5f6103c9826102b0565b91505f82036103db576103da610392565b5b600182039050919050565b5f6103f0826102b0565b91507fffffffffffffffffffffffffffffffffffffffffffffffffffffffffffffffff820361042257610421610392565b5b600182019050919050565b5f82825260208201905092915050565b7f696e6372656d656e7465640000000000000000000000000000000000000000005f82015250565b5f610471600b8361042d565b915061047c8261043d565b602082019050919050565b5f60408201905061049a5f8301846102b9565b81810360208301526104ab81610465565b90509291505056fea2646970667358221220b2a02f03fd9d51c48658157c53ef0f909201450460d744b01098872fd68f3e8f64736f6c634300081a0033",
					"opcodes": "PUSH1 0x80 PUSH1 0x40 MSTORE CALLVALUE DUP1 ISZERO PUSH1 0xE JUMPI PUSH0 DUP1 REVERT JUMPDEST POP CALLER PUSH1 0x1 PUSH0 PUSH2 0x100 EXP DUP2 SLOAD DUP2 PUSH20 0xFFFFFFFFFFFFFFFFFFFFFFFFFFFFFFFFFFFFFFFF MUL NOT AND SWAP1 DUP4 PUSH20 0xFFFFFFFFFFFFFFFFFFFFFFFFFFFFFFFFFFFFFFFF AND MUL OR SWAP1 SSTORE POP PUSH2 0x4E9 DUP1 PUSH2 0x5C PUSH0 CODECOPY PUSH0 RETURN INVALID PUSH1 0x80 PUSH1 0x40 MSTORE CALLVALUE DUP1 ISZERO PUSH2 0xF JUMPI PUSH0 DUP1 REVERT JUMPDEST POP PUSH1 0x4 CALLDATASIZE LT PUSH2 0x60 JUMPI PUSH0 CALLDATALOAD PUSH1 0xE0 SHR DUP1 PUSH4 0x6661ABD EQ PUSH2 0x64 JUMPI DUP1 PUSH4 0x2BAECEB7 EQ PUSH2 0x82 JUMPI DUP1 PUSH4 0x8DA5CB5B EQ PUSH2 0x8C JUMPI DUP1 PUSH4 0xA87D942C EQ PUSH2 0xAA JUMPI DUP1 PUSH4 0xD09DE08A EQ PUSH2 0xC8 JUMPI DUP1 PUSH4 0xD14E62B8 EQ PUSH2 0xD2 JUMPI JUMPDEST PUSH0 DUP1 REVERT JUMPDEST PUSH2 0x6C PUSH2 0xEE JUMP JUMPDEST PUSH1 0x40 MLOAD PUSH2 0x79 SWAP2 SWAP1 PUSH2 0x2C8 JUMP JUMPDEST PUSH1 0x40 MLOAD DUP1 SWAP2 SUB SWAP1 RETURN JUMPDEST PUSH2 0x8A PUSH2 0xF3 JUMP JUMPDEST STOP JUMPDEST PUSH2 0x94 PUSH2 0x163 JUMP JUMPDEST PUSH1 0x40 MLOAD PUSH2 0xA1 SWAP2 SWAP1 PUSH2 0x320 JUMP JUMPDEST PUSH1 0x40 MLOAD DUP1 SWAP2 SUB SWAP1 RETURN JUMPDEST PUSH2 0xB2 PUSH2 0x188 JUMP JUMPDEST PUSH1 0x40 MLOAD PUSH2 0xBF SWAP2 SWAP1 PUSH2 0x2C8 JUMP JUMPDEST PUSH1 0x40 MLOAD DUP1 SWAP2 SUB SWAP1 RETURN JUMPDEST PUSH2 0xD0 PUSH2 0x1E8 JUMP JUMPDEST STOP JUMPDEST PUSH2 0xEC PUSH1 0x4 DUP1 CALLDATASIZE SUB DUP2 ADD SWAP1 PUSH2 0xE7 SWAP2 SWAP1 PUSH2 0x367 JUMP JUMPDEST PUSH2 0x2A7 JUMP JUMPDEST STOP JUMPDEST PUSH0 SLOAD DUP2 JUMP JUMPDEST PUSH1 0x1 PUSH0 SWAP1 SLOAD SWAP1 PUSH2 0x100 EXP SWAP1 DIV PUSH20 0xFFFFFFFFFFFFFFFFFFFFFFFFFFFFFFFFFFFFFFFF AND PUSH20 0xFFFFFFFFFFFFFFFFFFFFFFFFFFFFFFFFFFFFFFFF AND CALLER PUSH20 0xFFFFFFFFFFFFFFFFFFFFFFFFFFFFFFFFFFFFFFFF AND EQ PUSH2 0x14B JUMPI PUSH0 DUP1 REVERT JUMPDEST PUSH0 DUP1 DUP2 SLOAD DUP1 SWAP3 SWAP2 SWAP1 PUSH2 0x15C SWAP1 PUSH2 0x3BF JUMP JUMPDEST SWAP2 SWAP1 POP SSTORE POP JUMP JUMPDEST PUSH1 0x1 PUSH0 SWAP1 SLOAD SWAP1 PUSH2 0x100 EXP SWAP1 DIV PUSH20 0xFFFFFFFFFFFFFFFFFFFFFFFFFFFFFFFFFFFFFFFF AND DUP2 JUMP JUMPDEST PUSH0 PUSH1 0x1 PUSH0 SWAP1 SLOAD SWAP1 PUSH2 0x100 EXP SWAP1 DIV PUSH20 0xFFFFFFFFFFFFFFFFFFFFFFFFFFFFFFFFFFFFFFFF AND PUSH20 0xFFFFFFFFFFFFFFFFFFFFFFFFFFFFFFFFFFFFFFFF AND CALLER PUSH20 0xFFFFFFFFFFFFFFFFFFFFFFFFFFFFFFFFFFFFFFFF AND EQ PUSH2 0x1E1 JUMPI PUSH0 DUP1 REVERT JUMPDEST PUSH0 SLOAD SWAP1 POP SWAP1 JUMP JUMPDEST PUSH1 0x1 PUSH0 SWAP1 SLOAD SWAP1 PUSH2 0x100 EXP SWAP1 DIV PUSH20 0xFFFFFFFFFFFFFFFFFFFFFFFFFFFFFFFFFFFFFFFF AND PUSH20 0xFFFFFFFFFFFFFFFFFFFFFFFFFFFFFFFFFFFFFFFF AND CALLER PUSH20 0xFFFFFFFFFFFFFFFFFFFFFFFFFFFFFFFFFFFFFFFF AND EQ PUSH2 0x240 JUMPI PUSH0 DUP1 REVERT JUMPDEST PUSH0 DUP1 DUP2 SLOAD DUP1 SWAP3 SWAP2 SWAP1 PUSH2 0x251 SWAP1 PUSH2 0x3E6 JUMP JUMPDEST SWAP2 SWAP1 POP SSTORE POP CALLER PUSH20 0xFFFFFFFFFFFFFFFFFFFFFFFFFFFFFFFFFFFFFFFF AND PUSH32 0x3FFA285C512090A1EF26A9F9AED6A5B1EFEB83A0181AA570E2092058E17CF82B PUSH0 SLOAD PUSH1 0x40 MLOAD PUSH2 0x29D SWAP2 SWAP1 PUSH2 0x487 JUMP JUMPDEST PUSH1 0x40 MLOAD DUP1 SWAP2 SUB SWAP1 LOG2 JUMP JUMPDEST DUP1 PUSH0 DUP2 SWAP1 SSTORE POP POP JUMP JUMPDEST PUSH0 DUP2 SWAP1 POP SWAP2 SWAP1 POP JUMP JUMPDEST PUSH2 0x2C2 DUP2 PUSH2 0x2B0 JUMP JUMPDEST DUP3 MSTORE POP POP JUMP JUMPDEST PUSH0 PUSH1 0x20 DUP3 ADD SWAP1 POP PUSH2 0x2DB PUSH0 DUP4 ADD DUP5 PUSH2 0x2B9 JUMP JUMPDEST SWAP3 SWAP2 POP POP JUMP JUMPDEST PUSH0 PUSH20 0xFFFFFFFFFFFFFFFFFFFFFFFFFFFFFFFFFFFFFFFF DUP3 AND SWAP1 POP SWAP2 SWAP1 POP JUMP JUMPDEST PUSH0 PUSH2 0x30A DUP3 PUSH2 0x2E1 JUMP JUMPDEST SWAP1 POP SWAP2 SWAP1 POP JUMP JUMPDEST PUSH2 0x31A DUP2 PUSH2 0x300 JUMP JUMPDEST DUP3 MSTORE POP POP JUMP JUMPDEST PUSH0 PUSH1 0x20 DUP3 ADD SWAP1 POP PUSH2 0x333 PUSH0 DUP4 ADD DUP5 PUSH2 0x311 JUMP JUMPDEST SWAP3 SWAP2 POP POP JUMP JUMPDEST PUSH0 DUP1 REVERT JUMPDEST PUSH2 0x346 DUP2 PUSH2 0x2B0 JUMP JUMPDEST DUP2 EQ PUSH2 0x350 JUMPI PUSH0 DUP1 REVERT JUMPDEST POP JUMP JUMPDEST PUSH0 DUP2 CALLDATALOAD SWAP1 POP PUSH2 0x361 DUP2 PUSH2 0x33D JUMP JUMPDEST SWAP3 SWAP2 POP POP JUMP JUMPDEST PUSH0 PUSH1 0x20 DUP3 DUP5 SUB SLT ISZERO PUSH2 0x37C JUMPI PUSH2 0x37B PUSH2 0x339 JUMP JUMPDEST JUMPDEST PUSH0 PUSH2 0x389 DUP5 DUP3 DUP6 ADD PUSH2 0x353 JUMP JUMPDEST SWAP2 POP POP SWAP3 SWAP2 POP POP JUMP JUMPDEST PUSH32 0x4E487B7100000000000000000000000000000000000000000000000000000000 PUSH0 MSTORE PUSH1 0x11 PUSH1 0x4 MSTORE PUSH1 0x24 PUSH0 REVERT JUMPDEST PUSH0 PUSH2 0x3C9 DUP3 PUSH2 0x2B0 JUMP JUMPDEST SWAP2 POP PUSH0 DUP3 SUB PUSH2 0x3DB JUMPI PUSH2 0x3DA PUSH2 0x392 JUMP JUMPDEST JUMPDEST PUSH1 0x1 DUP3 SUB SWAP1 POP SWAP2 SWAP1 POP JUMP JUMPDEST PUSH0 PUSH2 0x3F0 DUP3 PUSH2 0x2B0 JUMP JUMPDEST SWAP2 POP PUSH32 0xFFFFFFFFFFFFFFFFFFFFFFFFFFFFFFFFFFFFFFFFFFFFFFFFFFFFFFFFFFFFFFFF DUP3 SUB PUSH2 0x422 JUMPI PUSH2 0x421 PUSH2 0x392 JUMP JUMPDEST JUMPDEST PUSH1 0x1 DUP3 ADD SWAP1 POP SWAP2 SWAP1 POP JUMP JUMPDEST PUSH0 DUP3 DUP3 MSTORE PUSH1 0x20 DUP3 ADD SWAP1 POP SWAP3 SWAP2 POP POP JUMP JUMPDEST PUSH32 0x696E6372656D656E746564000000000000000000000000000000000000000000 PUSH0 DUP3 ADD MSTORE POP JUMP JUMPDEST PUSH0 PUSH2 0x471 PUSH1 0xB DUP4 PUSH2 0x42D JUMP JUMPDEST SWAP2 POP PUSH2 0x47C DUP3 PUSH2 0x43D JUMP JUMPDEST PUSH1 0x20 DUP3 ADD SWAP1 POP SWAP2 SWAP1 POP JUMP JUMPDEST PUSH0 PUSH1 0x40 DUP3 ADD SWAP1 POP PUSH2 0x49A PUSH0 DUP4 ADD DUP5 PUSH2 0x2B9 JUMP JUMPDEST DUP2 DUP2 SUB PUSH1 0x20 DUP4 ADD MSTORE PUSH2 0x4AB DUP2 PUSH2 0x465 JUMP JUMPDEST SWAP1 POP SWAP3 SWAP2 POP POP JUMP INVALID LOG2 PUSH5 0x6970667358 0x22 SLT KECCAK256 0xB2 LOG0 0x2F SUB REVERT SWAP14 MLOAD 0xC4 DUP7 PC ISZERO PUSH29 0x53EF0F909201450460D744B01098872FD68F3E8F64736F6C634300081A STOP CALLER "
				},
				"gasEstimates": {
					"creation": {
						"codeDepositCost": "251400",
						"executionCost": "24557",
						"totalCost": "275957"
					},
					"external": {
						"count()": "2402",
						"decrement()": "26665",
						"getCount()": "4644",
						"increment()": "infinite",
						"owner()": "2530",
						"setCount(uint256)": "22602"
					}
				},
				"methodIdentifiers": {
					"count()": "06661abd",
					"decrement()": "2baeceb7",
					"getCount()": "a87d942c",
					"increment()": "d09de08a",
					"owner()": "8da5cb5b",
					"setCount(uint256)": "d14e62b8"
				}
			},
			"storageLayout": {
				"storage": [
					{
						"astId": 3,
						"contract": "contracts/Counter.sol:Counter",
						"label": "count",
						"offset": 0,
						"slot": "0",
						"type": "t_uint256"
					},
					{
						"astId": 5,
						"contract": "contracts/Counter.sol:Counter",
						"label": "owner",
						"offset": 0,
						"slot": "1",
						"type": "t_address"
					}
				],
				"types": {
					"t_address": {
						"encoding": "inplace",
						"label": "address",
						"numberOfBytes": "20"
					},
					"t_uint256": {
						"encoding": "inplace",
						"label": "uint256",
						"numberOfBytes": "32"
					}
				}
			},
			"userdoc": {
				"kind": "user",
				"methods": {},
				"version": 1
			}
		}
	}
}